:020000040800F2
:100000000050002089140008C1100008C710000823
:10001000CD100008D3100008D9100008000000001F
:10002000000000000000000000000000DF100008D9
:10003000EB10000800000000F71000080311000892
:10004000D1140008D1140008D1140008D1140008FC
:10005000D1140008D1140008D1140008D1140008EC
:10006000D1140008D1140008D1140008D1140008DC
:10007000D1140008D1140008D1140008D1140008CC
:10008000D1140008D1140008D1140008D1140008BC
:10009000D1140008D1140008D1140008D1140008AC
:1000A000D1140008D1140008D1140008D11400089C
:1000B00011110008D1140008D1140008D11400084F
:1000C000D1140008D1140008D1140008D11400087C
:1000D000D1140008D1140008D1140008D11400086C
:1000E000D1140008D1140008D11400080000000049
:1000F0000000000000000000000000000000000000
:0C01000000000000000000005FF808F1A3
:1001100010B5054C237833B9044B13B10448AFF341
:1001200000800123237010BDE001002000000000CA
:10013000286D000808B5034B1BB103490348AFF312
:10014000008008BD00000000E4010020286D0008C8
:10015000034613F8012B002AFBD1181A0138704707
:1001600081F0004102E000BF83F0004330B54FEA68
:1001700041044FEA430594EA050F08BF90EA020FD5
:100180001FBF54EA000C55EA020C7FEA645C7FEA68
:10019000655C00F0E2804FEA5454D4EB5555B8BF8B
:1001A0006D420CDD2C4480EA020281EA030382EAFC
:1001B000000083EA010180EA020281EA0303362D8E
:1001C00088BF30BD11F0004F4FEA01314FF4801C61
:1001D0004CEA113102D0404261EB410113F0004F73
:1001E0004FEA03334CEA133302D0524263EB43032A
:1001F00094EA050F00F0A780A4F10104D5F1200EC8
:100200000DDB02FA0EFC22FA05F2801841F1000122
:1002100003FA0EF2801843FA05F359410EE0A5F1F6
:1002200020050EF1200E012A03FA0EFC28BF4CF027
:10023000020C43FA05F3C01851EBE37101F00045DD
:1002400007D54FF0000EDCF1000C7EEB00006EEBEA
:100250000101B1F5801F1BD3B1F5001F0CD3490874
:100260005FEA30004FEA3C0C04F101044FEA4452CB
:1002700012F5800F80F09A80BCF1004F08BF5FEA52
:10028000500C50F1000041EB045141EA050130BD32
:100290005FEA4C0C404141EB0101013C28BFB1F544
:1002A000801FE9D291F0000F04BF01460020B1FA8F
:1002B00081F308BF2033A3F10B03B3F120020CDA62
:1002C0000C3208DD02F1140CC2F10C0201FA0CF040
:1002D00021FA02F10CE002F11402D8BFC2F1200CA5
:1002E00001FA02F120FA0CFCDCBF41EA0C0190405B
:1002F000E41AA2BF01EB0451294330BD6FEA0404A4
:100300001F3C1CDA0C340EDC04F11404C4F120028E
:1003100020FA04F001FA02F340EA030021FA04F3A0
:1003200045EA030130BDC4F10C04C4F1200220FAF7
:1003300002F001FA04F340EA0300294630BD21FA35
:1003400004F0294630BD94F0000F83F4801306BFFB
:1003500081F480110134013D4EE77FEA645C18BFEF
:100360007FEA655C29D094EA050F08BF90EA020F86
:1003700005D054EA000C04BF1946104630BD91EA7E
:10038000030F1EBF0021002030BD5FEA545C05D181
:100390004000494128BF41F0004130BD14F58004C0
:1003A0003CBF01F5801130BD01F0004545F0FE4134
:1003B00041F470014FF0000030BD7FEA645C1ABF69
:1003C000194610467FEA655C1CBF0B46024650EAA0
:1003D000013406BF52EA033591EA030F41F40021CC
:1003E00030BD00BF90F0000F04BF0021704730B552
:1003F0004FF4806404F132044FF000054FF0000127
:1004000050E700BF90F0000F04BF0021704730B5E7
:100410004FF4806404F1320410F0004548BF4042BC
:100420004FF000013EE700BF42004FEAE2014FEA11
:1004300031014FEA02701FBF12F07F4393F07F4FEC
:1004400081F06051704732F07F4208BF704793F0EF
:100450007F4F04BF41F40021704730B54FF4607402
:1004600001F0004521F000411CE700BF50EA010205
:1004700008BF704730B54FF000050AE050EA0102AE
:1004800008BF704730B511F0004502D5404261EB1E
:1004900041014FF4806404F132045FEA915C3FF45F
:1004A000D8AE4FF003025FEADC0C18BF03325FEAFC
:1004B000DC0C18BF033202EBDC02C2F1200300FAAD
:1004C00003FC20FA02F001FA03FE40EA0E0021FAD2
:1004D00002F11444BDE600BF70B54FF0FF0C4CF4C0
:1004E000E06C1CEA11541DBF1CEA135594EA0C0F72
:1004F00095EA0C0F00F0DEF82C4481EA030621EAAD
:100500004C5123EA4C5350EA013518BF52EA0335E7
:1005100041F4801143F4801338D0A0FB02CE4FF099
:100520000005E1FB02E506F00042E0FB03E54FF0C9
:100530000006E1FB03569CF0000F18BF4EF0010EC1
:10054000A4F1FF04B6F5007F64F5407404D25FEABD
:100550004E0E6D4146EB060642EAC62141EA555170
:100560004FEAC52040EA5E504FEACE2EB4F1FD0CB2
:1005700088BFBCF5E06F1ED8BEF1004F08BF5FEA30
:10058000500E50F1000041EB045170BD06F00046E2
:1005900046EA010140EA020081EA0301B4EB5C048F
:1005A000C2BFD4EB0C0541EA045170BD41F4801187
:1005B0004FF0000E013C00F3AB8014F1360FDEBFAC
:1005C000002001F0004170BDC4F10004203C35DA88
:1005D0000C341BDC04F11404C4F1200500FA05F30B
:1005E00020FA04F001FA05F240EA020001F00042AC
:1005F00021F0004110EBD37021FA04F642EB060122
:100600005EEA430E08BF20EAD37070BDC4F10C044B
:10061000C4F1200500FA04F320FA05F001FA04F20F
:1006200040EA020001F0004110EBD37041F10001FB
:100630005EEA430E08BF20EAD37070BDC4F1200506
:1006400000FA05F24EEA020E20FA04F301FA05F26E
:1006500043EA020321FA04F001F0004121FA04F216
:1006600020EA020000EBD3705EEA430E08BF20EAE6
:10067000D37070BD94F0000F0FD101F00046400020
:1006800041EB010111F4801F08BF013CF7D041EAA2
:10069000060195F0000F18BF704703F000465200A6
:1006A00043EB030313F4801F08BF013DF7D043EA77
:1006B0000603704794EA0C0F0CEA135518BF95EA2D
:1006C0000C0F0CD050EA410618BF52EA4306D1D1B4
:1006D00081EA030101F000414FF0000070BD50EAD3
:1006E000410606BF1046194652EA430619D094EA5D
:1006F0000C0F02D150EA013613D195EA0C0F05D147
:1007000052EA03361CBF104619460AD181EA03019A
:1007100001F0004141F0FE4141F470014FF0000052
:1007200070BD41F0FE4141F4780170BD70B54FF0ED
:10073000FF0C4CF4E06C1CEA11541DBF1CEA13556D
:1007400094EA0C0F95EA0C0F00F0A7F8A4EB05044F
:1007500081EA030E52EA03354FEA013100F0888046
:100760004FEA03334FF0805545EA131343EA12630F
:100770004FEA022245EA111545EA10654FEA0026C4
:100780000EF000419D4208BF964244F1FD0404F57D
:10079000407402D25B084FEA3202B61A65EB0305D9
:1007A0005B084FEA32024FF480104FF4002CB6EB96
:1007B000020E75EB030E22BFB61A754640EA0C0016
:1007C0005B084FEA3202B6EB020E75EB030E22BF56
:1007D000B61A754640EA5C005B084FEA3202B6EB97
:1007E000020E75EB030E22BFB61A754640EA9C0056
:1007F0005B084FEA3202B6EB020E75EB030E22BF26
:10080000B61A754640EADC0055EA060E18D04FEAE3
:10081000051545EA16754FEA06164FEAC30343EA83
:1008200052734FEAC2025FEA1C1CC0D111F4801F50
:100830000BD141EA00014FF000004FF0004CB6E749
:1008400011F4801F04BF01430020B4F1FD0C88BFE8
:10085000BCF5E06F3FF6AFAEB5EB030C04BFB6EBF3
:10086000020C5FEA500C50F1000041EB045170BDE6
:100870000EF0004E4EEA113114EB5C04C2BFD4EB13
:100880000C0541EA045170BD41F480114FF0000E97
:10089000013C90E645EA060E8DE60CEA135594EA13
:1008A0000C0F08BF95EA0C0F3FF43BAF94EA0C0F16
:1008B0000AD150EA01347FF434AF95EA0C0F7FF48B
:1008C00025AF104619462CE795EA0C0F06D152EADF
:1008D00003353FF4FDAE1046194622E750EA4106C3
:1008E00018BF52EA43067FF4C5AE50EA41047FF4D4
:1008F0000DAF52EA43057FF4EBAE12E74FF0FF3C39
:1009000006E000BF4FF0010C02E000BF4FF0010C09
:100910004DF804CD4FEA410C7FEA6C5C4FEA430C82
:1009200018BF7FEA6C5C1BD001B050EA410C0CBFD1
:1009300052EA430C91EA030F02BF90EA020F002033
:10094000704710F1000F91EA030F58BF994208BF9A
:1009500090422CBFD8176FEAE37040F00100704757
:100960004FEA410C7FEA6C5C02D150EA013C07D1AE
:100970004FEA430C7FEA6C5CD6D152EA033CD3D0F9
:100980005DF8040B704700BF8446104662468C46F3
:100990001946634600E000BF01B5FFF7B7FF002826
:1009A00048BF10F1000F01BD4DF808EDFFF7F4FF4F
:1009B0000CBF012000205DF808FB00BF4DF808EDDA
:1009C000FFF7EAFF34BF012000205DF808FB00BFFD
:1009D0004DF808EDFFF7E0FF94BF012000205DF81F
:1009E00008FB00BF4DF808EDFFF7CEFF94BF0120D4
:1009F00000205DF808FB00BF4DF808EDFFF7C4FFCD
:100A000034BF012000205DF808FB00BF4FEA410C15
:100A10007FEA6C5C02D150EA013C0AD14FEA430CF8
:100A20007FEA6C5C02D152EA033C02D14FF0000035
:100A300070474FF0010070474FEA410212F5001273
:100A400015D211D56FF47873B3EB625212D94FEA15
:100A5000C12343F0004343EA505311F0004F23FAFF
:100A600002F018BF404270474FF00000704750EA54
:100A7000013005D111F0004008BF6FF00040704711
:100A80004FF00000704700BF4FEA4102B2F1E0436F
:100A900024BFB3F5001CDCF1FE5C0DD901F0004C65
:100AA0004FEAC0024CEA5070B2F1004F40EB8300B5
:100AB00008BF20F00100704711F0804F21D113F1E1
:100AC0003872BCBF01F00040704741F480114FEA1A
:100AD0005252C2F11802C2F1200C10FA0CF320FAA3
:100AE00002F018BF40F001004FEAC1234FEAD323C0
:100AF00003FA0CFC40EA0C0023FA02F34FEA43032A
:100B0000CCE77FEA625307D150EA01331EBF4FF0B2
:100B1000FE4040F44000704701F0004040F0FE40CD
:100B200040F40000704700BF80B588B000AF07F107
:100B3000100300221A605A609A60DA60244B9B69A5
:100B4000234A43F010039361214B9B6903F0100388
:100B5000FB60FB681E4B9B691D4A43F020039361B9
:100B60001B4B9B6903F02003BB60BB68184B9B6960
:100B7000174A43F004039361154B9B6903F0040388
:100B80007B607B68124B9B69114A43F008039361B9
:100B90000F4B9B6903F008033B603B6800224FF456
:100BA00000510C4800F0BCFF4FF400533B6101239F
:100BB0007B610023BB610223FB6107F1100319462F
:100BC000044800F029FE00BF2037BD4680BD00BFAD
:100BD000001002400010014080B500AF124B134AD4
:100BE0001A60114B124A5A600F4B00229A600E4B4A
:100BF0000022DA600C4B4FF480421A610A4B00224B
:100C00005A61094B00229A61074B0022DA61064BB8
:100C100000221A62044800F0B5FF0346002B01D001
:100C200000F017FA00BF80BDFC0100200054004016
:100C3000A086010080B588B000AF786007F110038E
:100C400000221A605A609A60DA607B681B68154A55
:100C5000934223D1144B9B69134A43F008039361D9
:100C6000114B9B6903F00803FB60FB68C0233B61E9
:100C700012237B610323FB6107F1100319460B4824
:100C800000F0CAFD084BDB69074A43F40013D36147
:100C9000054BDB6903F40013BB60BB6800BF203762
:100CA000BD4680BD0054004000100240000C0140D1
:100CB00080B485B000AF78600B46FB700023FB73F7
:100CC00007E0FB7B7A68134400221A70FB7B013338
:100CD000FB73FA7BFB789A42F3D300BF00BF143753
:100CE000BD4680BC7047000080B586B002AF0346A9
:100CF0000A46FB711346BB71FB793B73BB797B736F
:100D000007F10C02642300930223A621034801F09B
:100D10007DF800BF1037BD4680BD00BFFC0100203C
:100D200080B586B004AF0346FB71FB799AB26423A9
:100D3000029306230193054B00930123A621044847
:100D400001F062F900BF0837BD4680BD8402002073
:100D5000FC01002080B586B004AF0346FB71FB792F
:100D60009AB26423029301230193054B009301235C
:100D7000A621044801F048F900BF0837BD4680BDF0
:100D800082020020FC01002080B500AF0020FFF7A8
:100D9000E1FF01213120FFF7A7FF00212D20FFF700
:100DA000A3FF08212D20FFF79FFF00BF80BD00009B
:100DB00080B500AF3220FFF7B3FF314B5B781B02E9
:100DC0001AB22F4B1B781BB213431AB22D4B1A8049
:100DD0002B4BDB781B021AB2294B9B781BB21343B7
:100DE0001AB2294B1A80264B5B791B021AB2244B8C
:100DF0001B791BB213431AB2244B1A80214BB3F94F
:100E000000301846FFF7FEFA4FF000024FF07E5315
:100E1000FFF762FB02460B4610461946FFF734FE09
:100E200003461B4A1360184BB3F900301846FFF70E
:100E3000E9FA4FF000024FF07E53FFF74DFB0246F8
:100E40000B4610461946FFF71FFE0346114A136072
:100E50000E4BB3F900301846FFF7D4FA4FF00002FA
:100E60004FF07E53FFF738FB02460B4610461946FB
:100E7000FFF70AFE0346084A136000BF80BD00BFAB
:100E8000840200208A0200208C0200208E020020B2
:100E90009002002094020020980200202DE9B04327
:100EA00084B004AF184B1B681846FFF7BDFA8046A4
:100EB0008946164B1B681846FFF7B6FA04460D46DE
:100EC000134B1B681846FFF7AFFA02460B46CDE9F5
:100ED0000223CDE9004542464B460E490E4803F039
:100EE000A9FC642332220C490C4802F0A6FE3221F0
:100EF0000948FFF7DDFE4FF40051094800F028FED5
:100F000000BFBD46BDE8B0839002002094020020DF
:100F100098020020706D000850020020EC020020B2
:100F20000010014080B582B000AF00F0D3FA00F0AD
:100F30004BF8FFF7F9FD00F031FAFFF74DFE00F036
:100F4000BBF91A4802F078FAFFF71EFF184B1B781E
:100F5000012BFBD11C2000F044FC164B19686423C4
:100F60002A22154802F069FE144B1B781A461449D0
:100F7000144803F05FFC6423322212490E4802F049
:100F80005CFE00237B6006E0FFF712FFFFF786FFA1
:100F90007B6801337B607B68022BF5DD044B00220C
:100FA0001A701C2000F00FFCD0E700BFA402002044
:100FB0009C02002000000020EC02002082020020A1
:100FC0008C6D00085002002080B590B000AF07F192
:100FD000180328220021184602F0C4FF3B1D0022FE
:100FE0001A605A609A60DA601A610123BB614FF49B
:100FF0008033FB6100233B620123BB6202237B63DE
:101000004FF48033BB634FF4E013FB6307F1180325
:10101000184601F0A7FD0346002B01D000F019F897
:101020000F237B600223BB600023FB604FF48063CF
:101030003B6100237B613B1D0221184602F014F83E
:101040000346002B01D000F004F800BF4037BD4636
:1010500080BD80B400AF72B600BFFEE780B485B03B
:1010600000AF154B9B69144A43F001039361124B87
:101070009B6903F00103BB60BB680F4BDB690E4A41
:1010800043F08053D3610C4BDB6903F080537B60EA
:101090007B680A4B5B68FB60FB6823F0E063FB60E6
:1010A000FB6843F00073FB60044AFB68536000BFB9
:1010B0001437BD4680BC704700100240000001405C
:1010C00080B400AFFEE780B400AFFEE780B400AFAD
:1010D000FEE780B400AFFEE780B400AFFEE780B467
:1010E00000AF00BFBD4680BC704780B400AF00BFFA
:1010F000BD4680BC704780B400AF00BFBD4680BC19
:10110000704780B500AF00F02BFA00BF80BD000033
:1011100080B500AF034B01221A70034802F0DEF9DC
:1011200000BF80BD9C020020A402002080B400AF5C
:1011300001231846BD4680BC704780B582B000AF21
:101140007860396002F0E4FE034616221A604FF020
:10115000FF3318460837BD4680BD80B582B000AF6A
:1011600078604FF0FF317868FFF7E7FFFEE780B562
:1011700086B000AFF860B9607A6000237B610AE056
:10118000AFF300800146BB685A1CBA60CAB21A703D
:101190007B6901337B617A697B689A42F0DB7B680B
:1011A00018461837BD4680BD80B586B000AFF860E0
:1011B000B9607A6000237B6109E0BB685A1CBA60A1
:1011C0001B781846AFF300807B6901337B617A6935
:1011D0007B689A42F1DB7B6818461837BD4680BDB4
:1011E00080B483B000AF78604FF0FF3318460C37FF
:1011F000BD4680BC704780B483B000AF7860396072
:101200003B684FF400525A60002318460C37BD4625
:1012100080BC704780B483B000AF7860012318466B
:101220000C37BD4680BC704780B485B000AFF86015
:10123000B9607A60002318461437BD4680BC7047F9
:1012400080B586B000AF7860144A154BD31A7B6125
:101250007B693B61134B1B68002B02D1114B124A77
:101260001A60104B1A687B6813443A699A4207D295
:1012700002F04EFE03460C221A604FF0FF3309E0E5
:10128000084B1B68FB60074B1A687B681344054AD0
:101290001360FB6818461837BD4680BD005000201B
:1012A00000040000A00200204803002080B400AF2A
:1012B00000BFBD4680BC704780B586B000AF07F167
:1012C000080300221A605A609A60DA603B460022E6
:1012D0001A605A601E4B4FF080421A601C4B4CF251
:1012E00050325A601A4B00229A60194B4FF4E15267
:1012F000DA60174B00221A61154B80229A6114485C
:1013000002F04AF80346002B01D0FFF7A2FE4FF48B
:101310008053BB6007F1080319460D4802F0E6F957
:101320000346002B01D0FFF794FE00233B6000230F
:101330007B603B461946064802F0C2FB0346002B81
:1013400001D0FFF786FE00BF1837BD4680BD00BF45
:10135000A402002080B584B000AF78607B681B6871
:10136000B3F1804F13D10C4BDB690B4A43F00103FF
:10137000D361094BDB6903F00103FB60FB680022CA
:1013800000211C2000F003FA1C2000F01CFA00BF12
:101390001037BD4680BD00BF0010024080B500AFD1
:1013A000114B124A1A60104B4FF416525A600E4BF2
:1013B00000229A600C4B0022DA600B4B00221A616B
:1013C000094B0C225A61084B00229A61064B0022FD
:1013D000DA61054802F0E4FB0346002B01D0FFF779
:1013E00038FE00BF80BD00BFEC0200200038014085
:1013F00080B588B000AF786007F1100300221A6052
:101400005A609A60DA607B681B681C4A934231D14B
:101410001B4B9B691A4A43F480439361184B9B69A9
:1014200003F48043FB60FB68154B9B69144A43F04F
:1014300004039361124B9B6903F00403BB60BB6818
:101440004FF400733B6102237B610323FB6107F1CF
:10145000100319460B4800F0DFF94FF480633B613D
:1014600000237B610023BB6107F110031946054887
:1014700000F0D2F900BF2037BD4680BD00380140E2
:1014800000100240000801400C480D490D4A00239D
:1014900002E0D458C4500433C4188C42F9D30A4A29
:1014A0000A4C002301E013600432A242FBD3FFF791
:1014B000FDFE02F033FDFFF735FD70470000002010
:1014C000E0010020A4710008E00100204403002096
:1014D000FEE7000080B500AF084B1B68074A43F0E9
:1014E00010031360032000F047F90F2000F008F804
:1014F000FFF7B4FD0023184680BD00BF0020024066
:1015000080B582B000AF7860124B1A68124B1B781E
:1015100019464FF47A73B3FBF1F3B2FBF3F31846B9
:1015200000F06DF90346002B01D001230EE07B682B
:101530000F2B0AD8002279684FF0FF3000F027F90E
:10154000064A7B681360002300E001231846083731
:10155000BD4680BD040000200C00002008000020D3
:1015600080B400AF054B1B781A46054B1B6813442B
:10157000034A136000BFBD4680BC70470C000020CA
:101580003003002080B400AF024B1B681846BD46F4
:1015900080BC70473003002080B485B000AF786015
:1015A0007B6803F00703FB600C4BDB68BB60BA6829
:1015B0004FF6FF031340BB60FB681A02BB6813437E
:1015C00043F0BF6343F40033BB60044ABB68D3609D
:1015D00000BF1437BD4680BC704700BF00ED00E07F
:1015E00080B400AF044BDB681B0A03F00703184606
:1015F000BD4680BC704700BF00ED00E080B483B002
:1016000000AF0346FB7197F90730002B0BDBFB792A
:1016100003F01F02064997F907305B09012000FA21
:1016200002F241F8232000BF0C37BD4680BC704752
:1016300000E100E080B483B000AF0346FB7197F98E
:101640000730002B12DBFB7903F01F020A4997F9E0
:1016500007305B09012000FA02F2203341F8232011
:10166000BFF34F8F00BFBFF36F8F00BF00BF0C37BA
:10167000BD4680BC704700BF00E100E080B483B08D
:1016800000AF03463960FB7197F90730002B0ADB86
:101690003B68DAB20C4997F907301201D2B20B4419
:1016A00083F800230AE03B68DAB20849FB7903F0CB
:1016B0000F03043B1201D2B20B441A7600BF0C3761
:1016C000BD4680BC704700BF00E100E000ED00E0D7
:1016D00080B489B000AFF860B9607A60FB6803F04D
:1016E0000703FB61FB69C3F10703042B28BF042335
:1016F000BB61FB690433062B02D9FB69033B00E0A5
:1017000000237B614FF0FF32BB6902FA03F3DA4337
:10171000BB681A407B699A404FF0FF317B6901FA40
:1017200003F3D9437B680B40134318462437BD4667
:1017300080BC704780B582B000AF78607B68013BA9
:10174000B3F1807F01D301230FE00A4A7B68013B9C
:1017500053600F214FF0FF30FFF790FF054B002241
:101760009A60044B07221A60002318460837BD46CA
:1017700080BD00BF10E000E080B582B000AF7860AF
:101780007868FFF709FF00BF0837BD4680BD80B508
:1017900086B000AF0346B9607A60FB7300237B61BB
:1017A000FFF71EFF78617A68B9687869FFF790FFE4
:1017B000024697F90F3011461846FFF75FFF00BF4A
:1017C0001837BD4680BD80B582B000AF0346FB71BF
:1017D00097F907301846FFF711FF00BF0837BD46DD
:1017E00080BD80B582B000AF0346FB7197F907302A
:1017F0001846FFF71FFF00BF0837BD4680BD80B504
:1018000082B000AF78607868FFF794FF034618460F
:101810000837BD4680BD000080B48BB000AF786053
:10182000396000237B6200233B6269E101227B6A0D
:1018300002FA03F3FB613B681B68FA691340BB6162
:10184000BA69FB699A4240F058813B685B689A4AE2
:1018500093425ED0984A934275D8984A934258D0A2
:10186000964A93426FD8964A934252D0944A9342F2
:1018700069D8944A93424CD0924A934263D8924A90
:10188000934246D0904A93425DD8122B2AD8122B0D
:1018900059D801A252F823F013190008ED180008D6
:1018A000FF180008411900084719000847190008E7
:1018B0004719000847190008471900084719000888
:1018C0004719000847190008471900084719000878
:1018D000471900084719000847190008F5180008BB
:1018E00009190008794A934213D02CE03B68DB6861
:1018F0003B6229E03B68DB6804333B6224E03B68E1
:10190000DB6808333B621FE03B68DB680C333B62FB
:101910001AE03B689B68002B02D104233B6213E072
:101920003B689B68012B05D108233B627B68FA6901
:101930001A6109E008233B627B68FA695A6103E097
:1019400000233B6200E000BFBB69FF2B01D87B682E
:1019500001E07B6804337B61BB69FF2B02D87B6AA3
:101960009B0002E07B6A083B9B003B617B691A6835
:101970000F213B6901FA03F3DB431A40396A3B69E3
:1019800001FA03F31A437B691A603B685B6803F052
:101990008053002B00F0B1804D4B9B694C4A43F0C3
:1019A000010393614A4B9B6903F00103BB60BB6871
:1019B000484A7B6A9B08023352F82330FB607B6AFB
:1019C00003F003039B000F2202FA03F3DB43FA68E0
:1019D0001340FB607B68404A934213D07B683F4AC8
:1019E00093420DD07B683E4A934207D07B683D4AC4
:1019F000934201D1032306E0042304E0022302E022
:101A0000012300E000237A6A02F00302920093406F
:101A1000FA681343FB602F497B6A9B080233FA681C
:101A200041F823203B685B6803F48033002B06D029
:101A30002D4B1A682C49BB6913430B6006E02A4BF7
:101A40001A68BB69DB43284913400B603B685B683D
:101A500003F40033002B06D0234B5A682249BB699C
:101A600013434B6006E0204B5A68BB69DB431E49B9
:101A700013404B603B685B6803F48013002B06D077
:101A8000194B9A681849BB6913438B6006E0164BE3
:101A90009A68BB69DB43144913408B603B685B6801
:101AA00003F40013002B21D00F4BDA680E49BB69F9
:101AB0001343CB6021E000BF000032100000311062
:101AC0000000221000002110000012100000111070
:101AD000001002400000014000080140000C0140DD
:101AE0000010014000140140000401400B4BDA6873
:101AF000BB69DB4309491340CB607B6A01337B62DE
:101B00003B681A687B6A22FA03F3002B7FF48EAEDF
:101B100000BF00BF2C37BD4680BC704700040140A9
:101B200080B483B000AF78600B467B8013467B7037
:101B30007B78002B03D07A887B681A6103E07B886E
:101B40001A047B681A6100BF0C37BD4680BC704721
:101B500080B485B000AF78600B467B807B68DB6823
:101B6000FB607A88FB6813401A04FB68D9437B88C2
:101B70000B401A437B681A6100BF1437BD4680BC16
:101B80007047000080B584B000AF78607B68002BA0
:101B900001D101232BE17B6893F83D30DBB2002BB0
:101BA00006D17B68002283F83C207868FFF742F872
:101BB0007B68242283F83D207B681B681A687B6859
:101BC0001B6822F001021A607B681B681A687B6838
:101BD0001B6842F400421A607B681B681A687B68C5
:101BE0001B6822F400421A6001F090FBF8607B68E9
:101BF0005B68814A934207D8FB68804A934294BF4E
:101C000001230023DBB206E0FB687D4A934294BFC8
:101C100001230023DBB2002B01D00123E7E0FB68A6
:101C2000784AA2FB03239B0CBB607B681B685B6844
:101C300023F03F017B681B68BA680A435A607B68DF
:101C40001B681B6A23F03F017B685B686A4A93420A
:101C500002D8BB68013309E0BB684FF4967202FBFF
:101C600003F3694AA2FB03239B0901337A681268D4
:101C70000B4313627B681B68DB6923F44F4222F03D
:101C8000FF027B685B685C498B4219D8FB68591E70
:101C90007B685B685B00B1FBF3F3591C40F6FC7397
:101CA0000B40002B0AD0FB68591E7B685B685B0009
:101CB000B1FBF3F30133C3F30B0351E004234FE013
:101CC0007B689B68002B11D1FB68581E7B685968A4
:101CD0000B465B000B44B0FBF3F30133C3F30B0380
:101CE000002B0CBF01230023DBB212E0FB68581E5F
:101CF0007B6859680B469B000B4499000B44B0FB72
:101D0000F3F30133C3F30B03002B0CBF01230023B8
:101D1000DBB2002B01D0012322E07B689B68002B03
:101D20000ED1FB68581E7B6859680B465B000B445C
:101D3000B0FBF3F30133C3F30B0343F400430FE0B1
:101D4000FB68581E7B6859680B469B000B44990042
:101D50000B44B0FBF3F30133C3F30B0343F44043F1
:101D6000796809681343CB617B681B681B6823F0A3
:101D7000C0017B68DA697B681B6A1A437B681B6851
:101D80000A431A607B681B689B6823F4034323F0B3
:101D9000FF037A6811697A68D26811437A68126819
:101DA0000B4393607B681B68DB6823F0FF017B6853
:101DB0005A697B689B691A437B681B680A43DA602F
:101DC0007B681B681A687B681B6842F001021A6016
:101DD0007B6800221A647B68202283F83D207B68A0
:101DE00000221A637B68002283F83E2000231846F5
:101DF0001037BD4680BD00BFA08601007F841E0055
:101E0000FF083D0083DE1B43D34D621080B588B0D0
:101E100002AFF8607A601A460B467B8113463B811D
:101E2000FFF7B0FB7861FB6893F83D30DBB2202B05
:101E300040F0E0807B690093192301227049F86823
:101E400000F0B4FC0346002B01D00223D3E0FB6872
:101E500093F83C30012B01D10223CCE0FB68012236
:101E600083F83C20FB681B681B6803F00103012B0F
:101E700007D0FB681B681A68FB681B6842F0010208
:101E80001A60FB681B681A68FB681B6822F4006212
:101E90001A60FB68212283F83D20FB68102283F83A
:101EA0003E20FB6800221A64FB687A685A62FB686D
:101EB0003A895A85FB685B8D9AB2FB681A85FB6884
:101EC000504ADA6279897B693A6AF86800F004FB63
:101ED0000346002B01D001238DE000233B61FB680A
:101EE0001B685B693B61FB681B689B693B613B69E5
:101EF00066E07A69396AF86800F02EFD0346002B27
:101F00000DD0FB681B6C042B07D1FB681B681A689B
:101F1000FB681B6842F400721A6001236BE0FB68E7
:101F20005B6A1A78FB681B681A61FB685B6A5A1C5B
:101F3000FB685A62FB685B8D9BB2013B9AB2FB68FF
:101F40005A85FB681B8D013B9AB2FB681A85FB68BA
:101F50001B685B6903F00403042B1BD1FB681B8D1A
:101F6000002B17D0FB685B6A1A78FB681B681A6144
:101F7000FB685B6A5A1CFB685A62FB685B8D9BB20C
:101F8000013B9AB2FB685A85FB681B8D013B9AB2F4
:101F9000FB681A857A69396AF86800F01EFD034605
:101FA000002B0DD0FB681B6C042B07D1FB681B6852
:101FB0001A68FB681B6842F400721A6001231AE079
:101FC000FB681B8D002B94D1FB681B681A68FB68AB
:101FD0001B6842F400721A60FB68202283F83D20DF
:101FE000FB68002283F83E20FB68002283F83C2037
:101FF000002300E0022318461837BD4680BD00BF0D
:10200000020010000000FFFF80B58CB002AFF86046
:10201000084611461A4603467B810B463B81134610
:10202000FB8000233B62FFF7ADFA7862FB6893F810
:102030003D30DBB2202B40F044827B6A00931923B1
:1020400001228249F86800F0B1FB0346002B01D061
:10205000022337E2FB6893F83C30012B01D10223C5
:1020600030E2FB68012283F83C20FB681B681B6898
:1020700003F00103012B07D0FB681B681A68FB689B
:102080001B6842F001021A60FB681B681A68FB6853
:102090001B6822F400621A60FB68222283F83D204C
:1020A000FB68402283F83E20FB6800221A64FB682C
:1020B0003A6B5A62FB68BA8E5A85FB685B8D9AB29E
:1020C000FB681A85FB68624ADA62F8883A8979897E
:1020D0007B6A0193BB6B00930346F86800F07EFABD
:1020E0000346002B01D00123ECE1FB681B8D002B84
:1020F00013D10023FB61FB681B685B69FB61FB6814
:102100001B689B69FB61FB69FB681B681A68FB68BD
:102110001B6842F400721A60C0E1FB681B8D012B42
:102120001ED1FB681B681A68FB681B6822F480627A
:102130001A6072B600BF0023BB61FB681B685B6955
:10214000BB61FB681B689B69BB61BB69FB681B6863
:102150001A68FB681B6842F400721A6062B635E0C8
:10216000FB681B8D022B1ED1FB681B681A68FB687D
:102170001B6842F400621A6072B600BF00237B61E4
:10218000FB681B685B697B61FB681B689B697B6103
:102190007B69FB681B681A68FB681B6822F4806215
:1021A0001A6062B612E0FB681B681A68FB681B685D
:1021B00042F480621A6000233B61FB681B685B6924
:1021C0003B61FB681B689B693B613B6966E1FB689F
:1021D0001B8D032B00F21F81FB681B8D012B23D16C
:1021E0007A6AB96BF86800F039FC0346002B01D01D
:1021F000012367E1FB681B681A69FB685B6AD2B25E
:102200001A70FB685B6A5A1CFB685A62FB681B8D7C
:10221000013B9AB2FB681A85FB685B8D9BB2013B60
:102220009AB2FB685A8539E1FB681B8D022B52D1AB
:102230007B6A0093BB6B00220649F86800F0B6FA8F
:102240000346002B08D001233CE100BF0200100030
:102250000000FFFF0400010072B600BFFB681B68AE
:102260001A68FB681B6842F400721A60FB681B68FE
:102270001A69FB685B6AD2B21A70FB685B6A5A1C07
:10228000FB685A62FB681B8D013B9AB2FB681A859A
:10229000FB685B8D9BB2013B9AB2FB685A8562B6C4
:1022A00000BFFB681B681A69FB685B6AD2B21A70D0
:1022B000FB685B6A5A1CFB685A62FB681B8D013B1A
:1022C0009AB2FB681A85FB685B8D9BB2013B9AB2A0
:1022D000FB685A85E2E07B6A0093BB6B00227B4976
:1022E000F86800F063FA0346002B01D00123E9E00F
:1022F000FB681B681A68FB681B6822F480621A601E
:1023000072B600BFFB681B681A69FB685B6AD2B2D1
:102310001A70FB685B6A5A1CFB685A62FB681B8D6B
:10232000013B9AB2FB681A85FB685B8D9BB2013B4F
:102330009AB2FB685A85664B1B68DB08654AA2FBAC
:1023400003231A0A13469B001344DA00D31A3B6294
:102350003B6A013B3B623B6A002B18D1FB680022C1
:102360001A63FB68202283F83D20FB68002283F873
:102370003E20FB681B6C43F02002FB681A6462B6C7
:1023800000BFFB68002283F83C2001239AE0FB6831
:102390001B685B6903F00403042BD9D1FB681B683D
:1023A0001A68FB681B6842F400721A60FB681B68BD
:1023B0001A69FB685B6AD2B21A70FB685B6A5A1CC6
:1023C000FB685A62FB681B8D013B9AB2FB681A8559
:1023D000FB685B8D9BB2013B9AB2FB685A8562B683
:1023E00000BFFB681B681A69FB685B6AD2B21A708F
:1023F000FB685B6A5A1CFB685A62FB681B8D013BD9
:102400009AB2FB681A85FB685B8D9BB2013B9AB25E
:10241000FB685A8542E07A6AB96BF86800F01EFBE7
:102420000346002B01D001234CE0FB681B681A69AE
:10243000FB685B6AD2B21A70FB685B6A5A1CFB6865
:102440005A62FB681B8D013B9AB2FB681A85FB68D8
:102450005B8D9BB2013B9AB2FB685A85FB681B6897
:102460005B6903F00403042B18D1FB681B681A692D
:10247000FB685B6AD2B21A70FB685B6A5A1CFB6825
:102480005A62FB681B8D013B9AB2FB681A85FB6898
:102490005B8D9BB2013B9AB2FB685A85FB681B8D32
:1024A000002B7FF494AEFB68202283F83D20FB686C
:1024B000002283F83E20FB68002283F83C200023A2
:1024C00000E0022318462837BD4680BD0400010005
:1024D0000400002089B5F81480B588B002AFF86018
:1024E0007A603B600B467B81FB68DB6A7B617B69C2
:1024F000082B06D07B69012B03D07B6913F5803F45
:1025000008D1FB681B681A68FB681B6842F480727C
:102510001A600BE0FB681B6B122B07D1FB681B6872
:102520001A68FB681B6842F480721A603B6800936B
:102530007B6800224FF00111F86800F037F903467C
:10254000002B0DD0FB681B681B6803F48073B3F588
:10255000807F03D1FB684FF400721A64032335E0D7
:10256000FB681B69B3F5804F08D17B89DBB21A4643
:10257000FB681B6802F0FE021A611BE07B89DB111D
:10258000DBB203F00603DBB263F00F03DAB2FB68E1
:102590001B681A613B687A680E49F86800F05DF9BB
:1025A0000346002B01D0012310E07B89DAB2FB68DF
:1025B0001B681A613B687A680749F86800F04DF9B2
:1025C0000346002B01D0012300E0002318461837F2
:1025D000BD4680BD080001000200010080B588B042
:1025E00002AFF860084611461A4603467B810B4647
:1025F0003B811346FB80FB681B681A68FB681B68FD
:1026000042F480621A60FB681B681A68FB681B68EA
:1026100042F480721A607B6A00933B6A00224FF09A
:102620000111F86800F0C2F80346002B0DD0FB68DA
:102630001B681B6803F48073B3F5807F03D1FB68CC
:102640004FF400721A640323AAE07B89DBB21A46B6
:10265000FB681B6802F0FE021A617B6A3A6A524903
:10266000F86800F0FAF80346002B01D0012397E048
:1026700000237B61FB681B685B697B61FB681B68EF
:102680009B697B617B697A6A396AF86800F064F952
:102690000346002B0DD0FB681B6C042B07D1FB6895
:1026A0001B681A68FB681B6842F400721A600123F9
:1026B00076E0FB88012B05D13B89DAB2FB681B6809
:1026C0001A6121E03B891B0A9BB2DAB2FB681B68E6
:1026D0001A617A6A396AF86800F03EF90346002BFD
:1026E0000DD0FB681B6C042B07D1FB681B681A68B4
:1026F000FB681B6842F400721A60012350E03B89BA
:10270000DAB2FB681B681A617A6A396AF86800F005
:1027100023F90346002B0DD0FB681B6C042B07D15B
:10272000FB681B681A68FB681B6842F400721A6039
:10273000012335E0FB681B681A68FB681B6842F4DC
:1027400080721A607B6A00933B6A00224FF001118D
:10275000F86800F02BF80346002B0DD0FB681B68CF
:102760001B6803F48073B3F5807F03D1FB684FF4DB
:1027700000721A64032313E07B89DBB243F0010388
:10278000DAB2FB681B681A617B6A3A6A0649F86824
:1027900000F063F80346002B01D0012300E0002382
:1027A00018461837BD4680BD0200010080B584B0D0
:1027B00000AFF860B9603B601346FB7125E03B68F1
:1027C000B3F1FF3F21D0FEF7DDFE0246BB69D31A0D
:1027D0003A689A4202D33B68002B16D1FB6800226C
:1027E0001A63FB68202283F83D20FB68002283F8EF
:1027F0003E20FB681B6C43F02002FB681A64FB68F8
:10280000002283F83C20012323E0BB681B0CDBB2D1
:10281000012B0DD1FB681B685B69DA43BB68134071
:102820009BB2002B0CBF01230023DBB21A460CE045
:10283000FB681B689B69DA43BB6813409BB2002BA3
:102840000CBF01230023DBB21A46FB799A42B6D0B3
:10285000002318461037BD4680BD80B584B000AF58
:10286000F860B9607A603B6051E0FB681B685B69A7
:1028700003F48063B3F5806F23D1FB681B681A688B
:10288000FB681B6842F400721A60FB681B686FF4F7
:1028900080625A61FB6800221A63FB68202283F879
:1028A0003D20FB68002283F83E20FB681B6C43F050
:1028B0000402FB681A64FB68002283F83C200123B1
:1028C00046E07B68B3F1FF3F21D0FEF75BFE024696
:1028D0003B68D31A7A689A4202D37B68002B16D1E0
:1028E000FB6800221A63FB68202283F83D20FB6806
:1028F000002283F83E20FB681B6C43F02002FB683B
:102900001A64FB68002283F83C20012320E0BB68A6
:102910001B0CDBB2012B0CD1FB681B685B69DA4333
:10292000BB6813409BB2002B14BF01230023DBB212
:102930000BE0FB681B689B69DA43BB6813409BB2E2
:10294000002B14BF01230023DBB2002B8DD1002309
:1029500018461037BD4680BD80B584B000AFF86022
:10296000B9607A602DE0F86800F0CEF80346002BDD
:1029700001D001232DE0BB68B3F1FF3F21D0FEF76A
:1029800001FE02467B68D31ABA689A4202D3BB683A
:10299000002B16D1FB6800221A63FB68202283F803
:1029A0003D20FB68002283F83E20FB681B6C43F04F
:1029B0002002FB681A64FB68002283F83C20012394
:1029C00007E0FB681B685B6903F08003802BCAD1BA
:1029D000002318461037BD4680BD80B584B000AFD7
:1029E000F860B9607A602DE0F86800F08DF8034671
:1029F000002B01D001232DE0BB68B3F1FF3F21D0B4
:102A0000FEF7C0FD02467B68D31ABA689A4202D329
:102A1000BB68002B16D1FB6800221A63FB682022DA
:102A200083F83D20FB68002283F83E20FB681B6C86
:102A300043F02002FB681A64FB68002283F83C2004
:102A4000012307E0FB681B685B6903F00403042BA8
:102A5000CAD1002318461037BD4680BD80B584B06A
:102A600000AFF860B9607A6042E0FB681B685B69A0
:102A700003F01003102B19D1FB681B686FF01002D4
:102A80005A61FB6800221A63FB68202283F83D200C
:102A9000FB68002283F83E20FB681A6CFB681A640E
:102AA000FB68002283F83C20012329E0FEF76AFD41
:102AB00002467B68D31ABA689A4202D3BB68002BDD
:102AC00016D1FB6800221A63FB68202283F83D20A0
:102AD000FB68002283F83E20FB681B6C43F0200259
:102AE000FB681A64FB68002283F83C20012307E09E
:102AF000FB681B685B6903F04003402BB5D10023E2
:102B000018461037BD4680BD80B483B000AF7860F2
:102B10007B681B685B6903F48063B3F5806F1BD12E
:102B20007B681B686FF480625A617B6800221A63BD
:102B30007B68202283F83D207B68002283F83E20BA
:102B40007B681B6C43F004027B681A647B6800227C
:102B500083F83C20012300E0002318460C37BD46D3
:102B600080BC704780B586B000AF78607B68002B72
:102B700001D1012372E27B681B6803F00103002B83
:102B800000F08780924B5B6803F00C03042B0CD0A1
:102B90008F4B5B6803F00C03082B12D18C4B5B68E6
:102BA00003F48033B3F5803F0BD1894B1B6803F4EA
:102BB0000033002B6CD07B685B68002B68D101234D
:102BC0004CE27B685B68B3F5803F06D1804B1B68A5
:102BD0007F4A43F4803313602EE07B685B68002BF0
:102BE0000CD17B4B1B687A4A23F480331360784BFB
:102BF0001B68774A23F4802313601DE07B685B68C1
:102C0000B3F5A02F0CD1724B1B68714A43F480239B
:102C100013606F4B1B686E4A43F4803313600BE004
:102C20006B4B1B686A4A23F480331360684B1B6844
:102C3000674A23F4802313607B685B68002B13D002
:102C4000FEF7A0FC386108E0FEF79CFC02463B69F9
:102C5000D31A642B01D9032300E25D4B1B6803F4F4
:102C60000033002BF0D014E0FEF78CFC386108E054
:102C7000FEF788FC02463B69D31A642B01D9032373
:102C8000ECE1534B1B6803F40033002BF0D100E060
:102C900000BF7B681B6803F00203002B63D04C4B22
:102CA0005B6803F00C03002B0BD0494B5B6803F00F
:102CB0000C03082B1CD1464B5B6803F48033002BBC
:102CC00016D1434B1B6803F00203002B05D07B6831
:102CD0001B69012B01D00123C0E13D4B1B6823F090
:102CE000F8027B685B69DB00394913430B603AE00B
:102CF0007B681B69002B20D0364B01221A60FEF73F
:102D000041FC386108E0FEF73DFC02463B69D31AFE
:102D1000022B01D90323A1E12D4B1B6803F0020311
:102D2000002BF0D02A4B1B6823F0F8027B685B690C
:102D3000DB00274913430B6015E0264B00221A6085
:102D4000FEF720FC386108E0FEF71CFC02463B69F8
:102D5000D31A022B01D9032380E11D4B1B6803F01A
:102D60000203002BF0D17B681B6803F00803002BE3
:102D70003AD07B689B69002B19D0174B01221A604F
:102D8000FEF700FC386108E0FEF7FCFB02463B69F9
:102D9000D31A022B01D9032360E10D4B5B6A03F0C8
:102DA0000203002BF0D0012000F0D8FA1CE00A4BFF
:102DB00000221A60FEF7E6FB38610FE0FEF7E2FB47
:102DC00002463B69D31A022B08D9032346E100BF10
:102DD000001002400000424280044242924B5B6A73
:102DE00003F00203002BE9D17B681B6803F00403A6
:102DF000002B00F0A6800023FB758B4BDB6903F0F2
:102E00008053002B0DD1884BDB69874A43F08053F8
:102E1000D361854BDB6903F08053BB60BB68012342
:102E2000FB75824B1B6803F48073002B18D17F4B1A
:102E30001B687E4A43F480731360FEF7A3FB38617E
:102E400008E0FEF79FFB02463B69D31A642B01D9C9
:102E5000032303E1754B1B6803F48073002BF0D050
:102E60007B68DB68012B06D16F4B1B6A6E4A43F00F
:102E7000010313622DE07B68DB68002B0CD16A4BE9
:102E80001B6A694A23F001031362674B1B6A664A97
:102E900023F0040313621CE07B68DB68052B0CD174
:102EA000614B1B6A604A43F0040313625E4B1B6A6A
:102EB0005D4A43F0010313620BE05B4B1B6A5A4A05
:102EC00023F001031362584B1B6A574A23F0040393
:102ED00013627B68DB68002B15D0FEF753FB38616B
:102EE0000AE0FEF74FFB02463B69D31A41F28832F3
:102EF000934201D90323B1E04B4B1B6A03F0020359
:102F0000002BEED014E0FEF73DFB38610AE0FEF73F
:102F100039FB02463B69D31A41F28832934201D908
:102F200003239BE0404B1B6A03F00203002BEED10E
:102F3000FB7D012B05D13C4BDB693B4A23F08053E1
:102F4000D3617B68DB69002B00F08780364B5B68C0
:102F500003F00C03082B61D07B68DB69022B46D1A0
:102F6000334B00221A60FEF70DFB386108E0FEF7D4
:102F700009FB02463B69D31A022B01D903236DE0FA
:102F8000294B1B6803F00073002BF0D17B681B6A90
:102F9000B3F5803F08D1244B5B6823F400327B6893
:102FA0009B68214913434B601F4B5B6823F47412E9
:102FB0007B68196A7B685B6A0B431B4913434B6050
:102FC0001B4B01221A60FEF7DDFA386108E0FEF7BC
:102FD000D9FA02463B69D31A022B01D903233DE0FB
:102FE000114B1B6803F00073002BF0D035E0104B41
:102FF00000221A60FEF7C6FA386108E0FEF7C2FA4E
:1030000002463B69D31A022B01D9032326E0064B63
:103010001B6803F00073002BF0D11EE07B68DB69B6
:10302000012B07D1012319E000100240007000407D
:10303000600042420B4B5B68FB60FB6803F480322C
:103040007B681B6A9A4206D1FB6803F470127B68A6
:103050005B6A9A4201D0012300E00023184618372A
:10306000BD4680BD0010024080B584B000AF7860DE
:1030700039607B68002B01D10123D0E06A4B1B68CB
:1030800003F007033A689A4210D9674B1B6823F094
:10309000070265493B6813430B60634B1B6803F0F1
:1030A00007033A689A4201D00123B8E07B681B68A5
:1030B00003F00203002B20D07B681B6803F004039D
:1030C000002B05D0594B5B68584A43F4E0635360CA
:1030D0007B681B6803F00803002B05D0534B5B682B
:1030E000524A43F460535360504B5B6823F0F00244
:1030F0007B689B684D4913434B607B681B6803F0FA
:103100000103002B40D07B685B68012B07D1474B44
:103110001B6803F40033002B15D101237FE07B688B
:103120005B68022B07D1414B1B6803F00073002B37
:1031300009D1012373E03D4B1B6803F00203002B10
:1031400001D101236BE0394B5B6823F003027B68FC
:103150005B68364913434B60FEF714FAF8600AE0E7
:10316000FEF710FA0246FB68D31A41F28832934206
:1031700001D9032353E02D4B5B6803F00C027B68FD
:103180005B689B009A42EBD1274B1B6803F0070357
:103190003A689A4210D2244B1B6823F00702224956
:1031A0003B6813430B60204B1B6803F007033A682E
:1031B0009A4201D0012332E07B681B6803F00403CC
:1031C000002B08D0194B5B6823F4E0627B68DB6856
:1031D000164913434B607B681B6803F00803002B00
:1031E00009D0124B5B6823F460527B681B69DB00DB
:1031F0000E4913434B6000F021F802460B4B5B680D
:103200001B0903F00F030A49CB5C22FA03F3094AB6
:103210001360094B1B681846FEF772F90023184625
:103220001037BD4680BD00BF0020024000100240A4
:10323000AC6D0008040000200800002090B48AB0A3
:1032400000AF294B3C1D0FCB84E80F0040F2012357
:103250003B800023FB610023BB6100237B620023D2
:103260007B6100233B62214B5B68FB61FB6903F0E0
:103270000C03042B02D0082B03D02BE01C4B3B6229
:103280002BE0FB699B0C03F00F0328333B4413F83E
:10329000243C7B61FB6903F48033002B12D0134B79
:1032A0005B685B0C03F0010328333B4413F8283CB4
:1032B000BB617B690E4A03FB02F2BB69B2FBF3F30D
:1032C0007B6204E07B690B4A02FB03F37B627B6A4F
:1032D0003B6202E0064B3B6200BF3B6A1846283760
:1032E000BD4690BC704700BF9C6D000800100240B6
:1032F00000127A0000093D0080B400AF024B1B6849
:103300001846BD4680BC70470400002080B500AF61
:10331000FFF7F2FF0246054B5B681B0A03F0070349
:103320000349CB5C22FA03F3184680BD001002402B
:10333000BC6D000880B500AFFFF7DEFF0246054B0D
:103340005B68DB0A03F007030349CB5C22FA03F353
:10335000184680BD00100240BC6D000880B485B0E6
:1033600000AF78600A4B1B680A4AA2FB03235B0A82
:103370007A6802FB03F3FB6000BFFB685A1EFA6029
:10338000002BF9D100BF00BF1437BD4680BC704789
:1033900004000020D34D621080B582B000AF786089
:1033A0007B68002B01D1012341E07B6893F83D301D
:1033B000DBB2002B06D17B68002283F83C207868C2
:1033C000FDF7C8FF7B68022283F83D207B681A68FE
:1033D0007B6804331946104600F07AFA7B680122B4
:1033E00083F846207B68012283F83E207B68012217
:1033F00083F83F207B68012283F840207B6801220C
:1034000083F841207B68012283F842207B680122F7
:1034100083F843207B68012283F844207B680122E3
:1034200083F845207B68012283F83D20002318465D
:103430000837BD4680BD000080B485B000AF78601D
:103440007B6893F83D30DBB2012B01D001233AE0D9
:103450007B68022283F83D207B681B68DA687B6802
:103460001B6842F00102DA607B681B68184A9342CD
:103470000ED07B681B68B3F1804F09D07B681B6856
:10348000144A934204D07B681B68134A934211D1BB
:103490007B681B689B6803F00703FB60FB68062BD7
:1034A00010D07B681B681A687B681B6842F00102B9
:1034B0001A6007E07B681B681A687B681B6842F02B
:1034C00001021A60002318461437BD4680BC7047BD
:1034D000002C0140000400400008004080B582B08C
:1034E00000AF78607B681B681B6903F00203022B46
:1034F00022D17B681B68DB6803F00203022B1BD11F
:103500007B681B686FF002021A617B6801221A77E0
:103510007B681B689B6903F00303002B03D078686A
:1035200000F0BAF905E0786800F0ADF9786800F0CD
:10353000BCF97B6800221A777B681B681B6903F063
:103540000403042B22D17B681B68DB6803F00403AF
:10355000042B1BD17B681B686FF004021A617B6827
:1035600002221A777B681B689B6903F44073002B67
:1035700003D0786800F090F905E0786800F083F9EE
:10358000786800F092F97B6800221A777B681B68E4
:103590001B6903F00803082B22D17B681B68DB68DA
:1035A00003F00803082B1BD17B681B686FF008022F
:1035B0001A617B6804221A777B681B68DB6903F059
:1035C0000303002B03D0786800F066F905E0786803
:1035D00000F059F9786800F068F97B6800221A77E2
:1035E0007B681B681B6903F01003102B22D17B68DA
:1035F0001B68DB6803F01003102B1BD17B681B6872
:103600006FF010021A617B6808221A777B681B68CA
:10361000DB6903F44073002B03D0786800F03CF9B9
:1036200005E0786800F02FF9786800F03EF97B68D3
:1036300000221A777B681B681B6903F00103012BCA
:103640000ED17B681B68DB6803F00103012B07D1F7
:103650007B681B686FF001021A61786800F00AF954
:103660007B681B681B6903F08003802B0ED17B688D
:103670001B68DB6803F08003802B07D17B681B6825
:103680006FF080021A61786800F081FA7B681B682D
:103690001B6903F04003402B0ED17B681B68DB687D
:1036A00003F04003402B07D17B681B686FF040029A
:1036B0001A61786800F002F97B681B681B6903F0E7
:1036C0002003202B0ED17B681B68DB6803F02003EE
:1036D000202B07D17B681B686FF020021A61786885
:1036E00000F04CFA00BF0837BD4680BD80B584B0FD
:1036F00000AF786039607B6893F83C30012B01D1D2
:103700000223B3E07B68012283F83C207B6802221D
:1037100083F83D207B681B689B68FB60FB6823F097
:103720007703FB60FB6823F47F43FB607B681B68C7
:10373000FA689A603B681B68B3F5005F3ED0B3F54A
:10374000005F00F28780B3F5805F00F08580B3F5FD
:10375000805F7FD8702B1AD0702B7BD8602B50D015
:10376000602B77D8502B3CD0502B73D8402B58D09F
:10377000402B6FD8302B64D0302B6BD8202B60D0EF
:10378000202B67D8002B5CD0102B5AD062E07B68CE
:1037900018683B6899683B685A683B68DB6800F0CA
:1037A00070F97B681B689B68FB60FB6843F07703DC
:1037B000FB607B681B68FA689A604EE07B6818685B
:1037C0003B6899683B685A683B68DB6800F059F9C8
:1037D0007B681B689A687B681B6842F480429A6029
:1037E0003BE07B6818683B6859683B68DB681A46B1
:1037F00000F0D0F87B681B685021184600F027F9CC
:103800002BE07B6818683B6859683B68DB681A46A0
:1038100000F0EEF87B681B686021184600F017F98D
:103820001BE07B6818683B6859683B68DB681A4690
:1038300000F0B0F87B681B684021184600F007F9DB
:103840000BE07B681A683B681B681946104600F05D
:10385000FEF802E000BF00E000BF7B68012283F8B1
:103860003D207B68002283F83C2000231846103757
:10387000BD4680BD80B483B000AF786000BF0C3718
:10388000BD4680BC704780B483B000AF786000BF95
:103890000C37BD4680BC704780B483B000AF786001
:1038A00000BF0C37BD4680BC704780B483B000AF0A
:1038B000786000BF0C37BD4680BC704780B483B0D1
:1038C00000AF786000BF0C37BD4680BC7047000079
:1038D00080B485B000AF786039607B681B68FB609E
:1038E0007B68294A93420BD07B68B3F1804F07D0A5
:1038F0007B68264A934203D07B68254A934208D1CD
:10390000FB6823F07003FB603B685B68FA68134355
:10391000FB607B681C4A93420BD07B68B3F1804FFD
:1039200007D07B68194A934203D07B68184A9342B8
:1039300008D1FB6823F44073FB603B68DB68FA68DE
:103940001343FB60FB6823F080023B685B69134311
:10395000FB607B68FA681A603B689A687B68DA6289
:103960003B681A687B689A627B68074A934203D176
:103970003B681A697B681A637B6801225A6100BF41
:103980001437BD4680BC7047002C01400004004045
:103990000008004080B487B000AFF860B9607A607A
:1039A000FB681B6A7B61FB681B6A23F00102FB68F2
:1039B0001A62FB689B693B613B6923F0F0033B6142
:1039C0007B681B013A6913433B617B6923F00A035F
:1039D0007B617A69BB6813437B61FB683A699A61D2
:1039E000FB687A691A6200BF1C37BD4680BC70470D
:1039F00080B487B000AFF860B9607A60FB681B6A7A
:103A000023F01002FB681A62FB689B697B61FB680C
:103A10001B6A3B617B6923F470437B617B681B03FA
:103A20007A6913437B613B6923F0A0033B61BB6868
:103A30001B013A6913433B61FB687A699A61FB6831
:103A40003A691A6200BF1C37BD4680BC704780B41B
:103A500085B000AF786039607B689B68FB60FB686D
:103A600023F07003FB603A68FB68134343F00703DD
:103A7000FB607B68FA689A6000BF1437BD4680BC63
:103A8000704780B487B000AFF860B9607A603B607F
:103A9000FB689B687B617B6923F47F437B613B68A8
:103AA0001A027B681A43BB6813437A6913437B612C
:103AB000FB687A699A6000BF1C37BD4680BC7047BE
:103AC00080B485B000AF786039607B6893F83C3093
:103AD000012B01D1022346E07B68012283F83C20C0
:103AE0007B68022283F83D207B681B685B68FB6073
:103AF0007B681B689B68BB60FB6823F07003FB60FE
:103B00003B681B68FA681343FB607B681B68FA68B4
:103B10005A607B681B68164A93420ED07B681B680C
:103B2000B3F1804F09D07B681B68124A934204D0DE
:103B30007B681B68104A93420CD1BB6823F080035A
:103B4000BB603B685B68BA681343BB607B681B68FB
:103B5000BA689A607B68012283F83D207B68002266
:103B600083F83C20002318461437BD4680BC7047BC
:103B7000002C0140000400400008004080B483B0E5
:103B800000AF786000BF0C37BD4680BC704780B482
:103B900083B000AF786000BF0C37BD4680BC704773
:103BA00080B582B000AF78607B68002B01D1012323
:103BB0003FE07B6893F83D30DBB2002B06D17B6899
:103BC000002283F83C207868FDF712FC7B682422F1
:103BD00083F83D207B681B68DA687B681B6822F4E9
:103BE0000052DA60786800F005F97B681B681A6992
:103BF0007B681B6822F490421A617B681B685A69D3
:103C00007B681B6822F02A025A617B681B68DA68AD
:103C10007B681B6842F40052DA607B6800221A64F9
:103C20007B68202283F83D207B68202283F83E2099
:103C3000002318460837BD4680BD80B58AB002AF64
:103C4000F860B9603B601346FB8000237B61FB6832
:103C500093F83D30DBB2202B7CD1BB68002B02D027
:103C6000FB88002B01D1012375E0FB6893F83C3001
:103C7000012B01D102236EE0FB68012283F83C2076
:103C8000FB6800221A64FB68212283F83D20FDF7BF
:103C900079FC7861FB68FA889A84FB68FA88DA8490
:103CA000FB689B68B3F5805F08D1FB681B69002B3C
:103CB00004D10023FB61BB68BB6103E0BB68FB610F
:103CC0000023BB61FB68002283F83C202AE03B68AC
:103CD00000937B6900228021F86800F040F80346D9
:103CE000002B01D0032336E0FB69002B0BD1BB690D
:103CF0001B881A46FB681B68C2F308025A60BB693E
:103D00000233BB6107E0FB691A78FB681B685A60E5
:103D1000FB690133FB61FB68DB8C9BB2013B9AB210
:103D2000FB68DA84FB68DB8C9BB2002BCFD13B684D
:103D300000937B6900224021F86800F010F80346E8
:103D4000002B01D0032306E0FB68202283F83D20EE
:103D5000002300E0022318462037BD4680BD80B511
:103D600084B000AFF860B9603B601346FB712CE093
:103D7000BB69B3F1FF3F28D0BB69002B07D0FDF72B
:103D800001FC02463B68D31ABA699A421DD2FB680D
:103D90001B68DA68FB681B6822F4D072DA60FB6883
:103DA0001B685A69FB681B6822F001025A61FB68B4
:103DB000202283F83D20FB68202283F83E20FB6808
:103DC000002283F83C2003230FE0FB681B681A687D
:103DD000BB681340BA689A420CBF01230023DBB2D0
:103DE0001A46FB799A42C3D0002318461037BD46C5
:103DF00080BD000080B584B000AF78607B681B6830
:103E00001B6923F440517B68DA687B681B680A43AE
:103E10001A617B689A687B681B691A437B685B69D7
:103E20001343BB607B681B68DB6823F4B05323F04B
:103E30000C037A681268B9680B43D3607B681B680F
:103E40005B6923F440717B689A697B681B680A434D
:103E50005A617B681B682C4A934203D1FFF76AFAC8
:103E6000F86002E0FFF752FAF860FA6813469B0028
:103E700013449A001A447B685B689B00B2FBF3F31F
:103E8000224AA2FB03235B091901FA6813469B002F
:103E900013449A001A447B685B689B00B2FBF3F200
:103EA0001A4BA3FB02035B09642000FB03F3D31A44
:103EB0001B013233154AA2FB03235B0903F0F00315
:103EC0001944FA6813469B0013449A001A447B680D
:103ED0005B689B00B2FBF3F20C4BA3FB02035B0994
:103EE000642000FB03F3D31A1B013233074AA2FB01
:103EF00003235B0903F00F027B681B680A449A6086
:103F000000BF1037BD4680BD003801401F85EB5112
:103F1000014B1868704700BF1000002070B50026E4
:103F20000C4D0D4C641BA410A64209D102F0FCFEFE
:103F300000260A4D0A4C641BA410A64205D170BD90
:103F400055F8043B98470136EEE755F8043B98478F
:103F50000136F2E79C7100089C7100089C71000812
:103F6000A071000803460244934200D1704703F851
:103F7000011BF9E7002B2DE9F0471F46BBBF03F1FA
:103F800000431F4600232D2388B01446129A109D2B
:103F90001370149BDDF84CA023F02008B8F1460FF5
:103FA00005D0B8F1450F00D10135022300E003230D
:103FB00007AA049206AACDE902A2CDE9003522465D
:103FC0003B4600F0E5FCB8F1470F064602D1119BD5
:103FD000DB0722D5B8F1460F06EB050910D133787F
:103FE000302B0AD10022002320463946FCF7DCFCA6
:103FF00018B9C5F10105CAF80050DAF80030994443
:104000000022002320463946FCF7CEFC08B1CDF84B
:104010001C903022079B4B4507D33046079B159ACF
:104020009B1B136008B0BDE8F087591C07911A70FC
:10403000F0E70346F7B5002903F8022BB6BF2D229F
:104040002B224942092942702BDD0DF10704A446B9
:104050000A2791FBF7F60A46A64607FB1615632AC0
:1040600005F13005314604F1FF340EF8015CF0DC57
:104070003031AEF1020504F8011C2946441C6145AB
:104080000AD30DF10902A2EB0E02654588BF00229A
:104090001344181A03B0F0BD11F8012B04F8012FD6
:1040A000EDE7302330318370C170031DF1E700006C
:1040B0002DE9F04F91B00C46DDF8688016461F469A
:1040C000054601F053FA036818460993FCF740F8D7
:1040D00000230E93D8F800300A90073323F007032B
:1040E00003F1080294F81890D4F800B0C8F8002042
:1040F000D3E90023C4E91223D4E9128A2AF0004349
:104100000B934FF0FF3240469C4B0B99FCF77EFC23
:1041100070BB4FF0FF324046984B0B99FCF758FCB0
:1041200030BB0022002340465146FCF747FC10B14B
:104130002D2384F84330924B9248B9F1470F94BF36
:104140009846804603234FF0000A23612BF00403B6
:10415000236033462146284600970FAA00F0D4F981
:10416000013040F090804FF0FF3011B0BDE8F08F8B
:104170004246534640465146FCF748FC48B1BAF126
:10418000000FB8BF2D238048B8BF84F843307F4B61
:10419000D3E7636809F0DF015A1C42D1062363604C
:1041A000002206920EAACDE904920DAA4BF4806378
:1041B00003920DF13302CDE9013223606368424678
:1041C0000093284653460B91FFF7D4FE0B99804687
:1041D00047290D9908D1C81C02DB6368994240DD6C
:1041E000A9F102095FFA89F9B9F1650F1FD84A46AA
:1041F000013904F150000D91FFF71BFF0E9A824622
:104200001318012A236102DC2268D20701D5013389
:1042100023619DF83330002B9BD02D2384F843304D
:1042200097E74729BCD1002BBAD10123B7E7B9F1F1
:10423000660F18D1002963680BDD216113B922686C
:10424000D00702D501330B4423614FF0000AA1656A
:10425000DFE713B92268D20701D50233F4E701235F
:10426000F2E74FF067090E9B994205DB2368216155
:10427000D807EAD54B1CE7E70029CCBF0122C1F1E2
:1042800002021344E0E723685A0507D42369424633
:1042900031462846B84701302BD164E7B9F1650FA4
:1042A00040F2DD80D4E9120100220023FCF77CFB00
:1042B000002833D0012331462846354AB84701301B
:1042C0003FF451AFDDE90D239A4202DB2368D807A2
:1042D0000FD5DDE9092331462846B84701303FF4C0
:1042E00042AF4FF0000804F11A090E9B013B434511
:1042F00009DC23689B0700F10281E0680F9B98426C
:10430000B8BF184631E701234A4631462846B84728
:1043100001303FF428AF08F10108E6E70D9B002BC0
:1043200038DC012331462846194AB84701303FF4AA
:104330001AAFDDE90D23134302D12368D907D8D57D
:10434000DDE9092331462846B84701303FF40BAF79
:104350004FF0000904F11A0A0D9B5B424B4501DC4A
:104360000E9B94E70123524631462846B847013058
:104370003FF4F9AE09F10109EEE700BFFFFFEF7F5F
:10438000C86D0008CC6D0008D46D0008D06D000821
:10439000D86D00080E9AA36D9A42A8BF1A46002A4B
:1043A000914637DC4FF0000B29EAE97904F11A0253
:1043B000D4F858A0AAEB09035B4533DCDDE90D23F3
:1043C0009A423BDB2368DA0738D40E9B0D99A3EBA6
:1043D0000A02A3EB01099145A8BF9146B9F1000F6C
:1043E00034DC4FF0000829EAE97904F11A0ADDE922
:1043F0000D239B1AA3EB090343457FF77AAF0123F3
:10440000524631462846B84701303FF4ACAE08F179
:104410000108ECE71346314642462846B8470130CA
:10442000C0D1A0E60123314628460B92B84701309F
:104430003FF499AE0B9A0BF1010BB9E73146DDE978
:1044400009232846B8470130BFD18CE64B46314698
:10445000284608EB0A02B8470130C2D183E60E9A1B
:10446000012A01DCDB0737D50123424631462846C5
:10447000B84701303FF477AEDDE9092331462846DD
:10448000B84701303FF46FAED4E912010022002397
:10449000FCF78AFAD8B90E9B08F10102013B3146BC
:1044A0002846B84701300ED15DE601234A46314621
:1044B0002846B84701303FF456AE08F101080E9B7C
:1044C000013B4345F1DC534604F15002E0E64FF076
:1044D000000804F11A09F2E701234246DFE701234D
:1044E0004A4631462846B84701303FF43CAE08F111
:1044F0000108E3680F995B1A4345F0DCFDE64FF0D5
:10450000000804F11909F4E72DE9F0471646994629
:104510008A680B6907469342B8BF1346336091F827
:1045200043200C46DDF820800AB101333360236854
:10453000990642BF336802333360256815F00605DB
:1045400006D104F1190AE36832689B1AAB4228DCF1
:1045500094F84320131E226818BF012392062DD41D
:104560004946384604F14302C047013020D0236851
:10457000E56803F00603042B18BF002532684FF0EE
:104580000006A36808BFAD1A226908BF25EAE575D1
:104590009342C4BF9B1AED181A34B5421AD10020B9
:1045A00008E00123524649463846C047013003D14E
:1045B0004FF0FF30BDE8F0870135C4E73020E11847
:1045C00081F843005A1C94F845102244023382F8C3
:1045D0004310C5E70123224649463846C04701300B
:1045E000E6D00136D9E700002DE9FF470F7E91465E
:1045F000782F80460C469A460C9D01F1430207D85D
:10460000622F0AD8002F00F0D980582F00F0A48024
:1046100004F1420584F842703AE0A7F16303152BD8
:10462000F6D801A151F823F081460008954600080C
:1046300011460008114600081146000811460008FE
:10464000954600081146000811460008114600086A
:1046500011460008A3470008C54600088547000822
:104660001146000811460008C54700081146000819
:10467000C546000811460008114600088D4700088D
:104680002B681A1D1B682A6004F1420584F8423029
:104690000123A4E020682968060601F104030AD575
:1046A0000E682B60002E03DA2D23764284F8433007
:1046B0000A235E4819E00E6810F0400F2B6018BF07
:1046C00036B2EFE72B682068191D2960010601D575
:1046D0001E6802E04606FBD51E886F2F0CBF08231C
:1046E0000A235248002184F843106568002DA8BFB2
:1046F0002168A560A4BF21F0040121600EB9002D3E
:104700004DD01546B6FBF3F103FB1167C75D05F805
:10471000017D3746BB420E46F4D9082B0BD12368E6
:10472000DE0708D5236961689942DEBF302305F8AA
:10473000013C05F1FF35521B22614B4621464046A4
:10474000CDF800A003AAFFF7DFFE01304CD14FF0F7
:10475000FF3004B0BDE8F087344881F8457029681F
:10476000236851F8046B29601D0614D5DF0744BF88
:1047700043F0200323601EB9236823F02003236045
:104780001023AFE7236843F02003236078232848F1
:1047900084F84530E3E7590648BFB6B2E6E7154668
:1047A000BBE72B682668181D6169286035061B6801
:1047B00001D5196002E07006FBD51980002315466B
:1047C0002361BAE72B6800211A1D2A601D68626800
:1047D000284600F0D7FE08B1401B60606368236183
:1047E000002384F84330A8E72A4649464046236917
:1047F000D0470130ABD023689B0713D4E068039BFC
:104800009842B8BF1846A4E70123324649464046BD
:10481000D04701309BD00135E36803995B1AAB4266
:10482000F2DCEBE7002504F11906F5E7DA6D000884
:10483000EB6D00080EB46FF0004100B59CB01DABED
:1048400002900690079104910848094953F8042BF7
:104850000591006802A9019301F07EFB0022029BF2
:104860001A701CB05DF804EB03B070471000002014
:104870000802FFFF2DE9F74F03690C690746A342C1
:10488000C0F28280013C00F1140501F1140805EB2F
:104890008403019358F8243055F8242001339A42B8
:1048A000B2FBF3F64FEA840B08EB840931D34FF0E7
:1048B000000E4046AC46F24650F8042B93B206FB7D
:1048C00003E3120C4FEA134E9BB206FB02E2AAEB83
:1048D0000303DCF800A04FEA124E1FFA8AFA534491
:1048E000DCF800A092B2C2EB1A4202EB23429BB268
:1048F00043EA024381454FEA224A4CF8043BDBD2AB
:1049000055F80B302BB9019B043B9D421A462FD31F
:104910003C61384601F0D0F8002825DB28464FF0EE
:10492000000C013658F8041BD0F800E08BB2ACEB59
:1049300003031FFA8EF213440A0CC2EB1E4202EB71
:1049400023429BB243EA0243C1454FEA224C40F85E
:10495000043BE7D255F8242005EB840322B9043B3D
:104960009D421A460AD33C61304603B0BDE8F08F41
:104970001268043B002ACBD1013CC6E71268043B15
:10498000002AF0D1013CEBE70020EEE70000000038
:104990002DE9F04F16461F46446A99B00546CDE909
:1049A0000467DDF8948074B9102000F0E3FD02463E
:1049B000686220B9EA21A84BA84801F0DDFBC0E9F4
:1049C00001440460C4606B6A196851B15A680123DC
:1049D00093404A608B60284600F030FE00226B6AEC
:1049E0001A603B1EAFBF0023012223F00043059352
:1049F000A8BFC8F80030DDF81490994BB8BFC8F8CC
:104A0000002033EA090319D142F20F73249A13608C
:104A1000C9F31303334300F07F85269B53B9914BB1
:104A200022E0914B03930833269A1360039819B040
:104A3000BDE8F08F8B4B03930333F5E7DDE90434D6
:104A4000CDE90C34DDE90C0100220023FBF7ACFFBB
:104A5000804658B10123249A1360269B002B00F056
:104A6000588582481860431E0393DFE716AB019315
:104A700017AB00932846DDE90C2301F0C5F8C9F314
:104A80000A548346002C7FD0DDE90C010D9BA4F273
:104A9000FF34C3F3130343F07F5141F44011CDF8C9
:104AA0004C800022724BFBF75FFB65A3D3E9002328
:104AB000FBF712FD64A3D3E90023FBF757FB06467F
:104AC00020460F46FBF79EFC61A3D3E90023FBF7CA
:104AD00003FD02460B4630463946FBF747FB0646C8
:104AE0000F46FBF7A9FF00228246002330463946D5
:104AF000FBF764FF48B15046FBF784FC32463B4667
:104B0000FBF752FF08B90AF1FF3ABAF1160F58D86D
:104B1000DDE90C01574B03EBCA03D3E90023FBF794
:104B20004DFF00284FD000230AF1FF3A0F93169B48
:104B30001C1B631E099349BFC4F1010300230693A4
:104B4000002354BF06930993BAF1000F3DDB099B84
:104B5000CDF838A05344099300230A93229B092BD4
:104B600000F28C80052BC4BF043B2293229BC8BF5C
:104B70000024A3F10203D8BF0124032B00F28A8092
:104B8000DFE803F02D4F4D5BDDE916431C4404F2D2
:104B90003243202BC3BFC3F1400304F2124009FA91
:104BA00003F3C3F12003C6BF26FA00F0184306FA48
:104BB00003F0FBF717FC0123A1F1F871013C1393FB
:104BC0006FE70123B2E70F90B1E7069BA3EB0A035F
:104BD0000693CAF100030A9300230E93BEE7002355
:104BE0000B93239B002B58DC4FF001094B46CDF86B
:104BF0002090CDF88C900022686A4260042202F175
:104C000014069E4241684ED9284600F0D7FC039016
:104C100000284CD102464FF4D571174BCCE6012346
:104C2000DEE700230B93239B0AEB030909F1010341
:104C3000012B0893B8BF0123DDE70123F2E700BF92
:104C400061436F63A787D23FB3C8608B288AC63F92
:104C5000FB799F501344D33F096E0008206E000873
:104C60000000F07F056E0008FC6D0008D96D00089B
:104C70000000F83F106F00087B6E0008012400233D
:104C80000B9422934FF0FF3900221223CDF820908D
:104C90002392B0E701230B93F4E7DDF88C904B46A9
:104CA000CDF82090A7E7013141605200A7E76B6A79
:104CB000039A1A60089B0E2B00F2A880002C00F0CB
:104CC000A580BAF1000F34DD9A4A0AF00F0302EB17
:104CD000C3031AF4807FD3E90034CDE910344FEADE
:104CE0002A1416D0DDE90C01934B0327D3E90823DE
:104CF000FBF71CFDCDE9040104F00F048E4E54B9FE
:104D0000DDE91023DDE90401FBF710FDCDE9040125
:104D100029E00227F2E7E10708D5DDE91001D6E92D
:104D20000023FBF7D9FBCDE91001013764100836E9
:104D3000E5E700F0A580DDE90C01CAF100047D4B38
:104D400004F00F0203EBC203D3E90023FBF7C4FB1B
:104D500002270023CDE90401774E2411002C40F0F6
:104D60008480002BD2D10F9B002B00F08B80DDE9DB
:104D70000434CDE91034DDE9100100226F4BFBF75C
:104D80001DFE00287ED0089B002B7BD0B9F1000FC0
:104D900038DDDDE910010022694BFBF79DFB4C4635
:104DA000CDE904010AF1FF3801373846FBF72AFB49
:104DB000DDE90423FBF790FB0022624BFBF7D6F9F9
:104DC000A1F15076CDE910011196002C5DD1DDE9FD
:104DD000040100225C4BFBF7C7F902460B46CDE904
:104DE00004233346109AFBF707FE002840F09C820C
:104DF000DDE90401109A06F10043FBF7DFFD00280E
:104E000040F09082DDE90C34CDE90434179B002B8F
:104E1000C0F25281BAF10E0F00F34E81454B03EB05
:104E2000CA03D3E90034CDE90634239B002B80F27A
:104E3000DB80089B002B00F3D78040F07282DDE915
:104E400006010022404BFBF747FBDDE90423FBF79B
:104E5000C9FD089C2646002840F048823123039F64
:104E60000AF1010A07F8013B44E2E20705D5D6E959
:104E70000023FBF731FB01230137641008366DE78F
:104E8000022770E7D046089C8FE70399294B2144FD
:104E900012910B9903EBC403DDE9106753E9022378
:104EA000002955D000202949FBF740FC3B463246FB
:104EB000FBF75AF9CDE91001039FDDE90401FBF787
:104EC000BBFD0446FBF79EFA02460B46DDE90401F2
:104ED000FBF74AF902460B463034CDE90423DDE9FD
:104EE000102307F8014BFBF769FD002874D1DDE9B9
:104EF000042300201149FBF737F9DDE91023FBF704
:104F00005DFD002840F0B780129B9F423FF47AAFCE
:104F1000DDE9100100220A4BFBF7DEFA0022CDE9A1
:104F20001001DDE90401064BFBF7D6FACDE90401D7
:104F3000C3E700BF106F0008E86E00080000F03FF4
:104F40000000244000001C40000014400000E03F2E
:104F500030463946FBF7C0FA129BCDE91001039C9D
:104F60001493DDE90401FBF767FD1590FBF74AFA9E
:104F700002460B46DDE90401FBF7F6F8159B0646F1
:104F8000303304F8013B129B0F469C424FF0000265
:104F900024D1DDE91001B04BFBF7E8F802460B46DF
:104FA00030463946FBF728FD002863D1DDE91023A0
:104FB0000020A949FBF7D8F802460B46304639468F
:104FC000FBF7FCFC00283FF41DAF149F7B1E1493DD
:104FD00017F8013C302BF8D0C2463BE09F4BFBF763
:104FE0007BFACDE90401BCE7039FDDE90489DDE933
:104FF000062340464946FBF799FBFBF71DFD044697
:10500000FBF700FADDE90623FBF766FA02460B46DA
:1050100040464946FBF7A8F804F1300607F8016B53
:10502000039EDDF820C0BE1BB44502460B4636D1B8
:10503000FBF79CF8DDE9062380468946FBF7DCFC9C
:1050400058BBDDE9062340464946FBF7ADFC08B1F5
:10505000E10722D42846594600F0F0FA00233B70BD
:10506000249B0AF101001860269B002B3FF4DEAC64
:105070001F60DBE427463B461F4613F8012D392A03
:1050800007D1039A9A42F7D13022039908F1010817
:105090000A701A7801321A709EE7D046EBE70022B8
:1050A0006E4BFBF719FA0022002380468946FBF776
:1050B0007BFC00289BD0CDE70B9A002A00F0D08023
:1050C000229A012A00F3AE80139A002A00F0A680EB
:1050D00003F233430A9C069F069A01211A44069262
:1050E000099A28461A44099200F05EFB0646002FF2
:1050F0000CDD099B002B09DDBB42A8BF3B46069A8D
:10510000FF1AD21A0692099AD31A09930A9BF3B18D
:105110000B9B002B00F0A880002C10DD31462246AE
:10512000284600F0FFFB5A4601460646284600F096
:1051300051FB80465946284600F080FAC3460A9B38
:105140001A1B04D05946284600F0ECFB8346012187
:10515000284600F029FB0E9B0446002B40F3868076
:105160001A460146284600F0DDFB229B0446012B2F
:105170007FDD4FF00008236904EB8303186900F01A
:10518000C5FAC0F12000099B184410F01F0000F080
:105190009280C0F12003042B40F38A80C0F11C00F0
:1051A000069B074403440693099B03440993069B0B
:1051B000002B05DD59461A46284600F00DFC8346B3
:1051C000099B002B05DD21461A46284600F004FC09
:1051D00004460F9B002B70D02146584600F06CFC13
:1051E00000286ADA002359460A22284600F048FAC5
:1051F0000B9B83460AF1FF3A002B00F09481314665
:1052000000230A22284600F03BFAB9F1000F0646B7
:1052100000F39380229B022B57DC8EE0169BC3F198
:10522000360357E7089B5C1E0A9BA342B7BF0A9B45
:105230001C1BE21A0E9BBEBF0A949B180E93089B80
:10524000B8BF0024002BBBBF069B089A069F9F1A7D
:10525000ACBF089B00233FE70000E03F0000244074
:105260000A9C069F0B9E42E70A9A6BE7229B012B42
:1052700019DC049BBBB9059BC3F313039BB9059BC6
:1052800023F000431B0D1B0583B14FF00108069B63
:1052900001330693099B013309930E9B002B7FF486
:1052A0006AAF01206FE74FF00008F6E79846F4E791
:1052B0003FF47DAF18461C3072E7089B002B36DCAC
:1052C000229B022B33DDDDF82090B9F1000F0DD1C8
:1052D00021464B460522284600F0D2F901460446F5
:1052E000584600F0E9FB00283FF7B8AD239B039F29
:1052F0006FEA030A4FF000082146284600F09EF9A5
:10530000002E3FF4A7AEB8F1000F05D0B04503D092
:105310004146284600F092F93146284600F08EF9C1
:1053200098E600242646E1E7C246264696E50B9B12
:10533000DDF82090002B00F0FD80002F05DD3146C8
:105340003A46284600F048FB0646B8F1000F5CD00C
:105350002846716800F032F9074628B9024640F243
:10536000EA217F4BFFF728BB326906F10C010232BC
:1053700092000C3000F014F901223946284600F062
:105380002BFBB0460646039B01330893039B4B441B
:105390000A93049B03F001030993089B2146013BF8
:1053A00058460493FFF766FA0346414630330690A9
:1053B00058460B9300F080FB324681462146284632
:1053C00000F096FBC26807460B9B02BB014658469D
:1053D00000F072FB02460B9B39462846CDE90B32A2
:1053E00000F02CF9229B0C9A089F43EA0201099BCA
:1053F0000B430B9B0DD1392B29D0B9F1000F01DDE7
:10540000069B3133049A137076E73046B9E70122E0
:10541000E2E7B9F1000F06DB229941EA090909998F
:1054200059EA010120D1002AECDD59460122284623
:10543000089300F0D1FA2146834600F03DFB002896
:10544000089B02DCDED1DA07DCD5392BD8D1392331
:10545000049A13703B461F4617F8012C013B392A6A
:1054600050D001321A7047E7002A03DD392BEED005
:105470000133C7E7089A0A9902F8013C8A422AD008
:10548000594600230A22284600F0FAF8B045834620
:105490004FF000034FF00A024146284607D100F0C2
:1054A000EFF880460646089B0133089375E700F045
:1054B000E7F83146804600230A22284600F0E0F84B
:1054C0000646F0E7B9F1000FCCBF4F4601274FF079
:1054D0000008039A1744594601222846089300F011
:1054E0007BFA2146834600F0E7FA0028B2DC02D1BD
:1054F000089BDB07AED43B461F4613F8012D302A2C
:10550000FAD0F9E6039A9A42A5D131230AF1010AA9
:1055100079E7144BFFF7A8BA269B002B7FF481AAEA
:10552000114BFFF7A1BAB9F1000F03DC229B022B4C
:105530003FF7CBAE039F21465846FFF79BF9039AEE
:1055400000F1300307F8013BBA1A9145BADD59461C
:1055500000230A22284600F093F88346EBE700BFB9
:105560007B6E0008D86D0008FC6D0008004870478D
:1055700064010020024B0146186800F01DBC00BF0A
:1055800010000020034610B5C9B2024493421846E9
:1055900001D1002003E0047801338C42F6D110BD24
:1055A0000A44914200F1FF3300D1704710B511F861
:1055B000014B914203F8014FF9D110BD70B5466A15
:1055C00004460D4676B91020FFF7D4FF024660620C
:1055D00020B96621174B184800F0CEFDC0E90166DE
:1055E0000660C660666AF36883B1636ADB6853F875
:1055F0002500B8B9012101FA05F6721D2046920076
:1056000000F05EFB60B1C0E901560EE021220421EA
:10561000204600F055FB636AF060DB68002BE4D1A4
:10562000002070BD026843F825200023C0E9033341
:10563000F7E700BF096E00088C6E000870B5466A77
:1056400005460C4676B91020FFF794FF02466862C3
:1056500020B98A21084B094800F08EFDC0E9016697
:105660000660C6603CB16B6A6268DB6853F8221062
:10567000216043F8224070BD096E00088C6E00085E
:105680002DE9F04107460C461E4600200D6901F148
:10569000140CDCF80030013099B202FB01611E0CE1
:1056A0000B0C02FB063389B201EB034185424FEA42
:1056B00013464CF8041BECDC0EB3A368AB4219DCB8
:1056C000616838460131FFF779FF804628B9024604
:1056D000B5210C4B0C4800F04FFD226904F10C0180
:1056E000023292000C30FFF75BFF21463846FFF78D
:1056F000A5FF444604EB850301355E612561204624
:10570000BDE8F0817B6E00088C6E0008020C12046C
:105710000346CAB90304102013F07F4F04BF1B02D5
:10572000083013F0704F04BF1B01043013F0404FDA
:1057300004BF9B000230002B05DB13F0804F00F10B
:10574000010008BF202070470020E5E703680246FB
:1057500013F007000BD0D90721D4980749BF5B0885
:105760009B08012013605CBF02201360704799B250
:1057700009B910201B0CD9B209B908301B0A190746
:1057800004BF1B090430990704BF9B080230D907E6
:1057900003D45B0800F1010003D0136070470020C0
:1057A000704720207047000010B50C460121FFF71C
:1057B00005FF024628B94FF4A071044B044800F0DD
:1057C000DBFC01234461036110BD00BF7B6E000858
:1057D0008C6E00082DE9F04F91460A69D9F8103017
:1057E0000C469A42BEBF0B464C4699462769D9F8EB
:1057F00010A0A368616807EB0A06B34285B0B8BF82
:105800000131FFF7DBFE30B9024640F25D11434B38
:10581000434800F0B1FC00F114052B46002205EBD3
:105820008608434521D304F1140303EB870709F1EC
:10583000140303EB8A0202923A1B153A22F0030288
:10584000043204F115018F4238BF04220192029AFA
:1058500003939A420CD8002E03DD58F8043D002B28
:1058600059D0066105B0BDE8F08F43F8042BD8E7A6
:10587000B3F800A0BAF1000F23D0A9464FF0000CF6
:1058800004F1140E5EF8042BD9F800101FFA82FB05
:1058900089B20AFB0B116144D9F800C0120C4FEA1F
:1058A0001C4C0AFB02C202EB114289B241EA0241DE
:1058B00077454FEA124C49F8041BE3D8019A45F8A2
:1058C00002C0039A0433B2F80290B9F1000F20D05D
:1058D000AE464FF0000A296804F1140CBCF800B081
:1058E000BEF8022089B209FB0B22924441EA0A4128
:1058F0004EF8041B5CF8042BBEF80010120C09FBD8
:105900000211674501EB1A414FEA114AE6D8019AA4
:10591000A95004359BE7013E9DE700BF7B6E000860
:105920008C6E00082DE9F843154612F00302064676
:105930000F4607D0254C013A002354F82220FFF7E8
:105940009FFE0746AD103DD0746A7CB91020FFF76A
:1059500011FE0246706228B94FF4D7711C4B1D48E6
:1059600000F00AFCC0E901440460C460D6F8248059
:10597000D8F808404CB940F271213046FFF714FFC7
:1059800000230446C8F8080003604FF00009EB0745
:105990000AD5394622463046FFF71CFF8046394675
:1059A0003046FFF74BFE47466D100BD0206838B9E4
:1059B000224621463046FFF70DFF2060C0F80090D8
:1059C0000446E4E73846BDE8F88300BFD86F000816
:1059D000096E00088C6E00082DE9F0470C4607465A
:1059E00091462369496803EB6218A3684FEA621A7B
:1059F00008F10106B3420BDB3846FFF7DFFD054631
:105A000048B9024640F2D911294B2A4800F0B4FBAC
:105A100001315B00EEE7002300F1140100F11002F8
:105A20001846534537DB20692AEAEA7A04F1140361
:105A300019F01F0901EB8A0103EB80002FD08A4681
:105A40004FF0000CC9F1200E1A6802FA09F242EA7E
:105A50000C024AF8042B53F8042B984222FA0EFC4D
:105A6000F2D8031B153B23F00303043304F11502A2
:105A7000904238BF042341F803C0BCF1000F01D0AD
:105A800008F10206013E384621462E61FFF7D6FD99
:105A90002846BDE8F08742F8040F0133C1E7043916
:105AA00053F8042B984241F8042FF9D8EAE700BFD5
:105AB0007B6E00088C6E000803460A69006930B5E9
:105AC000801A0DD11433143103EB820401EB8201EF
:105AD00054F8045D51F8042D954202D004D30120FE
